:200000005C4000209198000001CA011001CA011001CA011001CA011001CA011001CA0110D3
:1C00200001CA011001CA011001CA011001CA011001CA011001CA01103FCA011082
:20003C0000008001100082FFFDFF58003AFFBFF3FFFFFFFFFFFFFFFFFFFFFFFFFFFFFFFF63
:20005C00FFFFFFFFFFFFFFFFFFFFFFFFFFFFFFFFFFFFFFC5FFFFFFFFC5FFFFFFC5C5C5FFC6
:18007C00C5C5C5FF00000000FFFFFFFFFFFFFFFFFFFFFFFFFFFFFFFF2E
:200100003C000000000000000000000034010000000000000000000001000000000000006D
:1C01200000000000000000000000000001000000000000000800000000000000BA
:20013C00340000000000000000000000680100000000000000000000010000000000000005
:14015C00010000000000000000000000080000000000000086
:2001700030000000000000000000000098010000040000000000000001000000FFFFFFFFA5
:10019000FF00000001000000080000000000000057
:2001A0002C0000000000000000000000C4010000040000000000000001000000FFFFFFFF4D
:0C01C000FFFFFFFF08000000000000002F
:2001CC0034050000E401000099A1011095A70110A5C2011009B2011045B80110000000000B
:0801EC00000000002E000000DD
:2001F400280000000000000000000000140200000000000000000000FFFFFFFF00000000B1
:080214000800000000000000DA
:20021C00300500003002000069C201106DC101101FC2011095BA011000000000000000008E
:04023C00300000008E
:20024000300500005402000075C20110A9B601109DBF011049B601100000000000000000DE
:040260003100000069
:200264002400000000000000000000008002000000000000000000000000000008000000CC
:040284000000000076
:20028800240000000000000000000000A40200000000000000000000000000000800000084
:0402A8000000000052
:2002AC00240000000000000000000000C8020000000000000100000000000000080000003B
:0402CC00000000002E
:2002D00000000000101C0020040000000000000000000000200000007001000030000000FD
:2002F0001C020000241C00200400000000000000000000000C000000300400001800000014
:2003100040020000301C002004000000000000000000000024000000480400001800000093
:2003300000000000381C002004000000000000000000000010000000A00100002C00000058
:20035000CC010000401C002004000000000000000000000020000000640200002400000096
:20037000FFFFFFFF601C0020040000000000000000000000280000008802000024000000FB
:20039000FFFFFFFF701C0020040000000000000000000000580000003C01000034000000D8
:2003B000FFFFFFFF781C0020040000000000000000000000100000006004000018000000ED
:2003D000FFFFFFFF801C00200400000000000000000000001C000000AC0200002400000063
:2003F000FFFFFFFF881C002004000000000000000000000038000000F401000028000000D4
:20041000FFFFFFFF901C002004000000000000000000000054000000000100003C0000006F
:1804300018000000000000000000000040040000080000000000000050
:1804480018000000000000000000000058040000080000000000000020
:18046000180000000000000000000000700400000800000000000000F0
:0804780001000000A8CF000004
:040484000100000073
:0404880000000C0064
:04048C0000000D005F
:040490003200000036
:040494000200000062
:0404980050250020CB
:04049C00000200005A
:0404A0000000000058
:0404A40001CA011078
:0404A8000000000050
:0404AC00000000004C
:0404B0000800000040
:0404B4000000200024
:0404B800802400207C
:0404BC00010000003B
:0404C000481C0020B4
:0404C400080000002C
:0404C8000000000030
:0404CC00000000002C
:0404D0000000000028
:0404D4000000000024
:0404D8000000000020
:0404DC00010000001B
:0404E000B025002023
:0404E400060000000E
:0404E800010000000F
:0404EC00A023002029
:0404F0000000000008
:0404F4000000000004
:0404F80000020000FE
:0404FC0000000000FC
:020502002A00CD
:020504000100F4
:020506002500CE
:020508003000C1
:02050A003100BE
:02050C002E00BF
:02050E000100EA
:0105100001E9
:080514000300000060CF0000AD
:08051C000000000000000000D7
:0405240000000100D2
:0405280000000300CC
:04052C0087C401106F
:04053000380500008A
:040534003805000086
:0405380000000000BF
:04053C00800000003B
:040540008000000037
:0405440000000000B3
:04054800481C00202B
:04054C004FBF00009D
:040550002000000087
:04055400F8CE0000DD
:0405580068CD00006A
:04055C000DC30110BA
:040560005B780000C4
:04056400B77B000061
:0405680099C801101D
:04056C009BC8011017
:040570000000000087
:04057400B7CD0000FF
:0405780018CB00009C
:04057C0030CB000080
:0405800000CB0000AC
:0205840008006D
:0205860009006A
:02058800010070
:02058A0000006F
:01058C00016D
:040590000000000067
:040594000000000063
:04059800000000005F
:04059C00000000005B
:0405A00001BD000099
:0405A400ED9C0000CA
:0405A800D1B40000CA
:0405AC00A199000011
:0405B000398300008B
:0405B40069A7000033
:0405B800CD6D000005
:0405BC0025B800005E
:0405C000318700007F
:0405C40011C8011049
:0405C80021C8011035
:0405CC000800000023
:0405D0002400000003
:0405D400180000000B
:0405D80028000000F7
:0405DC0020000000FB
:0405E0003C000000DB
:0405E4000C00000007
:0405E80034000000DB
:2005EC002DE9F843089C582B804617460CBFA7A5ABA5002908BFB8F1000F05D12068411E88
:20060C002160302707702AE04FEAE7793E460246083E13D0083E0DD0002908BFB2F1FF3FF3
:20062C0004D94B463A4602F0C7FD0BE0B2FBF7F0002107E008071209090902E04807D2083C
:20064C00C9081043226800FB1783561E0029EB5C26608046137008BFB8F1000FD6D12068EA
:20066C000BF024FC401EBDE8F883F8B50546A8688C461446002804D4286820F01000286069
:20068C0001E00120A8602F7BB7F1580007D0173807D0401E03D0083818BF0A2202D1102224
:2006AC0000E00822702F73D02E680020002106F4EC66203E4CD0203E3DD0C03E25D0B6F59C
:2006CC0080760CD0583F64D00C3F57D07F1F55D0BF1F5ED0BF1F5CD0FF1E62D159E0583F06
:2006EC000AD00C3F4AD07F1F48D0BF1F04D0BF1F18BFB7F1030754D11868C01C20F003004C
:20070C00001D186010F8040C4BE0583F0AD00C3F08D07F1F06D0BF1F04D0BF1F18BFB7F1DE
:20072C0003073ED11868C01D20F0070008301860083803C835E0583F2BD00C3F1ED07F1FE7
:20074C001CD0BF1F25D0BF1F23D0FF1E29D120E0583F0AD00C3F11D07F1F0FD0BF1F04D01A
:20076C00BF1F18BFB7F103071BD11868C01C20F00300001D186030F8040C12E01868C01C90
:20078C0020F00300001D186050F8040CC11708E000211868C01C20F00300001D186050F820
:2007AC00040CAB68DE1741EA0607002F40EA030308BF002B02D12B681B093DD32B7B642BBD
:2007CC0018BF692B09D1002907DA012700234042CCF8007063EB01012B7B0094FFF700FF3E
:2007EC00302103E02268531E23601170AA68401C8242F7DA287B782803D0582818BF7028B2
:20080C000ED12A6812090BD3702808BF78202268531E236010702068421E22600170287BEF
:20082C006F2809D12868000906D320684278302A02D0421E22600170F8BD7CB5054614467D
:20084C000E46002DD8BF684264230A22C1170094FFF7C6FE702E0BD0502E09D00A2D09DA07
:20086C0015F10A0F04DD2068411E216030230370002D01D42B2100E02D212068421E226058
:20088C0001702068411E216006707CBD3031323334353637383941424344454600C046C05C
:2008AC003031323334353637383961626364656600C0F8B51D4617460E4604460BF0F6FA14
:2008CC00324603460021002A284603DD9342A4BF1119491E27B105686E1E06602E272F70BE
:2008EC00934208DAD71A30251A4603685E1E06607F1E1D70F9D1002A0CDD8C420FD80F1B5C
:20090C007F1C026811F80139541E04607F1E1370F7D1F8BD01684A1E026030270F70F8BD52
:20092C002DE9F04F8246ADF16C0D884690681A920028199302D004D5062000E00120114608
:20094C0088603021C7A68DF8001096E80C00471C5046414606F078FA38BF88F00048002403
:20096C0012E03020087059E099E80C0004F0B0F8641E8846824611E099E80C00504603F030
:20098C00D3FA641C88468246BAA20CCA414606F09EFA0FF2D829EFD34FF0000B96E80C0089
:2009AC00504606F051FA09D0B4A20CCA504606F04BFA5D4638BF0125002DD5D1504608F05D
:2009CC00F5FE05460DF1010108F0EAF800EB0D060419874206F1010619DD3F1A28460AF05A
:2009EC0032FB0B4602464146504602F0DFFC99E80C0004F06DF88846824608F0D7FE0546A7
:200A0C0005F130007F1E06F8010BE7D101E06F447E1C16F8010D35280ADB314611F8010D2B
:200A2C00401CC2B23A2A08709BDA6D468D4204D058460DF10105307002E0641C06F801BCD4
:200A4C0014F1030F08DB1A988068A04213DA022CA4BF641EA34405DA002C04DCC4F1010488
:200A6C00ABEB040B01241A98199A007B801EC1B25846FFF7E2FE28460BF018FA0027401E3B
:200A8C00844217DC021B521C002803D4295C302901D005E030211FB91A9B1B681B0905D316
:200AAC00199F3B685E1E3E6001271970521EA0F10100E9D11A980068002200F00800384399
:200ACC0018BF0122199B21462846FFF7F2FE1BB0BDE8F08F2DE9FE4F0D99441C9946924692
:200AEC0001900FF2801B02940C9F009130210170194610469BE80C0006F0A6F938BF89F0E0
:200B0C000049002512E03020087053E098E80C0003F0DEFF6D1E8946824610E098E80C0074
:200B2C00504603F001FA6D1C8946824651A20CCA494606F0CCF90FF23418EFD37F1C9BE8C5
:200B4C000C00504606F080F90AD04CA20CCA504606F07AF94FF0000638BF0126002ED5D1A4
:200B6C00504608F023FE0646214608F019F8041941190098EF19016017DD30460AF063FAC5
:200B8C000B4602464946504602F010FC98E80C0003F09EFF8946824608F008FE064606F199
:200BAC0030007F1E04F8010BE7D114F8010D352810DB214611F8010D401CC2B23A2A087010
:200BCC00A1DA0198884205D10099019A08680292401C0860002102982170BDE8FE8F2DE9C5
:200BEC00F0431646B5681C46ADF5FE7D0246ADF1100D002D44BF0625B560D4F8009002A845
:200C0C0000950B46019003A8FFF764FF029FB56880460BF04BF9E9196A1EA1F1010110D488
:200C2C00521C002904D48842C8BF18F8015000DC302523685F1E521E2760A1F101011D7036
:200C4C00EFD120680122484503D13068000938BF0022029940462346FFF72BFE7FB004B076
:200C6C00BDE8F083000000000000000000000000000024400000C0FFFFFFDF41000000000F
:200C8C000000F03F2DE9F0471646B468994688460746ADF1700D002C44BF0624B4600FF2D1
:200CAC00702A9AE80C0006F012F94FF000050DD90FF2443A9AE80C00384606F0C5F805D9B9
:200CCC00CFA20CCA06F0C0F812D11FE09AE880010EE09AE80C00384603F026F96D1C07464C
:200CEC000FE09AE80C0003F0F3FE6D1E88460746C5A20CCA4146384606F0A6F80FF2103AC0
:200D0C00EFD39AE80C0006F0E2F8E2D9009402A80B463A46019003A8FFF7DCFE04460298ED
:200D2C00022809D1401E029020460BF0BFF86D1C0021201800F8011C317B28464A46FFF704
:200D4C007CFD029FB56820460BF0B0F8E9196A1EA1F1010111D4521C002903D48842C8BF85
:200D6C00655C00DC3025D9F800305F1E521EC9F80070A1F101011D70EED120460BF096F887
:200D8C0002990122884203D13068000938BF002220464B46FFF78DFD1CB0BDE8F0872DE9BC
:200DAC00F04F0746ADF1840D1E4600201E9258A4019094E80C00384606F089F888460FF25F
:200DCC0040290CD98CA494E80C00384606F03CF805D999E80C0006F037F802D109E094E891
:200DEC0080014146384601AA0AF05CFC0198401E01901E988568007BB5F1FF3F4FF0000497
:200E0C001B9008BF01241B9A834B84482093A2461F90412A18BF181C1C9030208DF8080097
:200E2C0099E80C004146384606F00EF838BF88F0004899E80C00414606F006F80CD03846FF
:200E4C006A460AF02FFC009A41463846C2F1010208F0F4FC88460746384608F0A7FC834677
:200E6C000DF1090107F09CFE044658460AF0EBF80B4602464146384602F098FA0FF20C3B9E
:200E8C0004EB0D021D940746BAF1000F02F1090458D16D1C15D09BE80C0003F019FE0F460B
:200EAC00804608F083FC1C99095C04F8011B0AF0CAF80B4602463946404602F077FA6D1E6F
:200ECC00E9D11B98641E224641280CBF1F9D209D117828460AF03CFF401B082837DB2746CC
:200EEC004FF000081B987F1E41280CBF1F9D209D397828460AF02CFF401B401C1028B4BFFC
:200F0C00295C30211028397021DB87F80080E9E7000000000000F07F9BE80C00384603F0D4
:200F2C00D7FD0D46074608F041FC1C99095C04F8011B0AF088F80B4602462946384602F0D8
:200F4C0035FA074699E80C0005F07EFFE4D11E980025007B2570412814BF70215021019893
:200F6C003246FFF76AFC1E988468B4F1FF3F06D10DF109000AF09AFF441E1E9884600DF1A1
:200F8C0009000AF093FF1D99002C2144A1F1010110DD002905D48842C4BF01EB0D02527AD2
:200FAC0000DC302233685F1E641E3760A1F101011A70EED11E99086889682A4600F0080069
:200FCC0001430DF1090018BF01221D993346FFF770FC1E98007B412814BF78215821306818
:200FEC00421E3260017030683027411E316021B00770BDE8F08FC046000000000000F0FF42
:20100C000000000000000000000000000000F03F0000000000002440AC08000098080000DD
:20102C002DE9F8430D460646317B14460F460846613F192F98BF20380027884208BF012794
:20104C001868C01D20F0070008301860A0F1080191E80003083803C80AF056F9022879D083
:20106C00494640460AF050F9C0A201283AD00CCA4946404605F0E8FE03D2012089F00049F9
:20108C002860307B413825D0001F1BD0401E11D0401E07D01A381DD0001F13D0401E09D0AD
:2010AC00401E71D14946404632462346FFF738FCBDE8F8834946404632462346FFF78FFDCC
:2010CC00BDE8F8834946404632462346FFF7DAFDBDE8F8834946404632462346FFF75FFEB8
:2010EC00BDE8F8830CCA4946404605F0ADFE16D3002F14BF462166212068421E2260002FC7
:20110C00017014BF4E216E212068421E2260002F017014BF4920692003222B2115E0002F1D
:20112C0014BF462166212068421E2260002F017014BF4E216E212068421E2260002F0170FD
:20114C0014BF4920692004222D2123685E1E2660187014E0002F14BF4E216E212068421E59
:20116C002260002F017014BF412161212068421E2260002F017014BF4E216E210222206803
:20118C00431E236001702A60BDE8F88300000000000030402DE9FF479046044600220D46E3
:2011AC0004F2FD1792460192202102976E68CDF800A04FF4FF7206F0CFF8029880F800A076
:2011CC002A7BD146A6194346C84604F5FE70642A029010DC642A21D0B2F1250119D01C39F8
:2011EC0022D0091F02291FD9133917D009391BD0891E1FD034E0A2F16500022814D9001F6E
:20120C000CD0801F012809D9801F07D0C01E05D026E055A0018801202180A2E0284601A933
:20122C0002AAFFF722FA1AE02846694602AAFFF7F7FE14E01968C91C21F00301091D196028
:20124C0011F8043C494603B90121A0F1010C03702A68CDF808C0884622F002022A602A7B89
:20126C00752A28D06F2A26D0782A24D0582A22D0702A20D0009B1BB15B1E1CD10120019029
:20128C00019B286800F002091BB9800806D32B2000E02D2002994A1E02920870019850B9BD
:2012AC00B9F1000F07D12868C00804D30298411E0291202303702868400808D20298696803
:2012CC003A1A914203DBC01B37187F1C00E027460299384652464FF4FF73491C0AF0D8FB53
:2012EC00B8F1000F029003D0411C029180F800A00298864207D3321A2021401E521C06F032
:20130C002BF886F800A02868400921D3BC4224D03A1B2046302106F01FF8287B78280FD086
:20132C0058280DD070280BD0019859EA000002D12868C00811D33878207030263E700CE0B6
:20134C002868000909D37878607030267E7004E03A1B2046202105F0FFFF20460AF0A6FD32
:20136C0040440090BDE8FF872500C04600000000000000002DE9F04F0546ADF5FE7DADF19C
:20138C00300D0091949889902C682868984616460AF08CFD014620468A9661180024814220
:2013AC00889140F26581A346CDF804B08DF810B0CDF808B04FF0FF3103910778252F08BF2F
:2013CC005B460ED0002F00F053812968491C296000788A99C04728680778641C252FF1D1C9
:2013EC00019B29680098491C296011E043F010030AE043F0010307E043F0020304E043F0A0
:20140C00080301E043F0040301932968491C296029680A78B2F12001F4D0C91EEFD0083905
:20142C00EAD0891EE5D0C91EE0D02A2A1ED085A859460A2205F090FF2868017830290BDBED
:20144C0085AA3A2908DA0146401C2860097802F8011B01783029F4DA9DF8140218B185A809
:20146C0008F0ECF802900098296810E0C01C20F00300001D50F8041C0090002903D543F0A1
:20148C0001030193494202912968491C29600A782E2A33D12968491C296009782A2921D0E9
:2014AC0085A859460A2205F057FF2868017830290BDB85AA3A2908DA0146401C2860097875
:2014CC0002F8011B01783029F4DA9DF81402002808BF584602D085A808F0B0F8024629689A
:2014EC00009809E02968C01C20F00300001D491C009050F8042C296003920A78019F4C3A8F
:20150C001FD01C3A11D0121F21D12968491C29600A786C2A03D047F04007019717E029686E
:20152C0047F48077491C2960F7E72968491C29600A78682A18BF47F02007EED147F4007768
:20154C0001E047F0800701972968491C29602A68521C2A6009786E298DF8101054D09DF8C9
:20156C001010732944D1039EC01C20F00300001D009050F804ACBAF1000F35D0DDF808902D
:20158C00002E06D450460AF091FCB04288BF301C02D850460AF08AFC06464E45A8BF814698
:2015AC004C44B14509DD780807D2B9EB060704DD8A992020C0477F1EFAD1002E06DD374668
:2015CC001AF8010B8A99C0477F1EF9D10198B14549DD400847D3B9EB060744DD8A99202004
:2015EC00C0477F1EFAD13EE08A995846C0473AE005A801A96A46FFF7CDFD899B8A9902461A
:20160C0005A8984704192EE007F4EC67203F22D0E03F14D0B7F5807708D0C01C20F00300FB
:20162C00001D009050F8040C04601CE0C01C20F00300001D009050F8040C047013E0C01C02
:20164C0020F00300001D009050F8040C2146E21780E8060007E0C01C20F00300001D009015
:20166C0050F8040C04802868889981423FF69CAE7FB020460CB0BDE8F08F2DE9F04F064679
:20168C0040F29421012541F22D00ADF10C0DC4F22231C4F2090040F81D5C08680028FCD03D
:2016AC0043F6AC7E46F2440AC020C5F2000EC4F20C0AF4464AF8440CDEF80890DCF80410A2
:2016CC0046F25620C4F20800890807D271460A686FF00F0E4EEA1241017001E072210170A2
:2016EC0041F28C38C5F2000858F8D41CC1F304611629A8BF20396246926812175118491C37
:20170C0011F10A0FB8BF6FF0090100232C4625EAD96201F01F01C4F2203341F4F8510183C7
:20172C0024EA996E1A60002EC3F808E073D058F83C1CC1F38360C1F38F275FEA994167D2F5
:20174C0049F3072CBCF1000F29D549F307214A42B1F1FF3F4FEA620215DA7F0805D1400853
:20176C0006BF281C2F1C4FF6FF777F080CF1010C05D1400806BF281C2F1C4FF6FF77521E20
:20178C000CF1010CE9D1490809D37F0805D1400806BF281C2F1C4FF6FF770CF1010CBCF1E1
:2017AC00000F35DDBCF1020F4FEA6C020CF001031DDB4FF6FF717F0047F00107B94207D258
:2017CC00400040F001000F2892BF2F1C0F200F1C7F0047F00107B94207D2400040F001005C
:2017EC000F2892BF2F1C0F200F1C521EE3D1002B0EDD7F004FF6FF7147F00107B94207D22F
:20180C00400040F001000F2892BF2F1C0F200F1C47EA004703E040F6FF77C0F20F070AF055
:20182C0099FC39460022002808BF2A1C48F20007C4F20C0738680028FCD04AF20800C4F299
:20184C000C0001613D600AB10AF08AFC002E08BFD82109D058F83C1C58F83C0CC1F38701F3
:20186C0000F0030041EA002188B2009040F2FF3200232C214AF20000C4F20C0007F065F92D
:20188C00002E1ABF58F8100CC0F30D0B40F2FF3B0AF060FC0021002808BF291C386800281F
:2018AC00FCD04AF20800C4F20C00C0F814B03D6009B10AF055FC002E04BF4FF0000BC6F635
:2018CC00880B0DD058F818BC0BF07C420BF47C010BF47C4011430BF0FC0B08434BEA000B97
:2018EC000AF038FC0021002808BF291C38680028FCD04AF20800C4F20C00C0F80CB03D60AE
:20190C0009B10AF02DFC002E04BF47F28A6BC0F2680B0DD058F81CBC0BF47C020BF47C415C
:20192C000BF4707011430BF03F0B08434BEA000B0AF010FC0021002808BF291C3868002875
:20194C00FCD04AF20800C4F20C00C0F808B03D6009B10AF005FC002E3AD058F8140C43F606
:20196C00AC71C5F200014B68C0F303525B08C0F3034117D243F6AC73C5F200031B6843F3BD
:20198C00032C12EB0C0203D4102A02DB0F2200E0002243F30333C91803D4102902DB0F2176
:2019AC0000E0002141EA021100F47F4200F0F00E0B0400F00F0B222E42EA03024EEA020164
:2019CC004BEA010B08D300F0804040EA0B0B03E043F6277BC0F2710B0AF0BCFB0021002809
:2019EC0008BF291C38680028FCD04AF20800C4F20C00C0F804B03D6009B10AF0B1FB222E7C
:201A0C0026BFD8F80000C0F30070281C4AF2400BC4F20C0B222E4FEA400040F020008BF8AE
:201A2C00090126BFD8F80000C0F34070281C202E40F010008BF809013CBF002001900CD38E
:201A4C00D8F80C00C20C02F44072800D00F01C0100F003001143084301900AF07BFB019A60
:201A6C000021002808BF291C38680028FCD04AF20800C4F20C0002623D6009B10AF070FB4B
:201A8C00202E26BFD8F80C00C0F301500020222E4FEA400040F060008BF80C0126BFD8F869
:201AAC000000C0F3C06100216FF07F00222E40EAC1008BF8010126BFD8F80000C0F3455189
:201ACC0000214FF60040202ECFF6FF7040EA8100ABF89C0105D248F20000C4F23F00019050
:201AEC000BE0D8F80C000003820D00F47C11920500F470401143084301900AF02BFB019ADA
:201B0C000021002808BF291C38680028FCD04AF20800C4F20C0002603D6009B10AF020FBFC
:201B2C0044204FF0880E8BF8C500002E8BF8C7E01ABFD8F80000C0F3C141002140F6840681
:201B4C00C9F3815041F03001C4F28C3600288BF8C81041D0401E07D0401E37D0042002219D
:201B6C0007F099F900214BE0284609F0BFFC04460420214607F08FF9042009F0B7FC844278
:201B8C00FAD143F6AC70C5F2000050F8040C0104090C4AF8081CC0F3074E4AF804ECCAF88E
:201BAC00005031680029FCD0002240F2B411CAF80020C1F2000109680B68000E4FF06022D9
:201BCC00072198474FF48060CBF800000420032107F061F9002113E00420294607F05BF981
:201BEC0043F2BD704AF8080C4FF086094AF8049CCAF8005030680028FCD00021CAF80010E0
:201C0C0058F8200C4BF2700342F22C0E41F22D0C47F6180240F29449C4F20C0300F03F0058
:201C2C00C4F2090E8BF8CB0FC4F2090C1A80DEF800004AF8441CC4F260294CF81D1C03B022
:201C4C00C9F80050BDE8F08F2DE9F04FADF16C0D05F056FDD44C04F1180004F15C0104F01C
:201C6C000DFFDFF870B3E06059460AF07FFA01260821DFF86483ADF85810D8F80000ADF870
:201C8C005A60014616A88847BDF85C0060801898A06004F124000AF0F5F900254FF0040997
:201CAC0004F178074FF47A72D34920612B4600953846CDF8049006F099FE1F20314608F0C0
:201CCC0009FE30468DF81800AA46ADF816A006AA8DF814A03146ADF80EA00820ADF8120001
:201CEC004FF44870ADF810006420ADF80C0040F2053001F017F940F2063002210DF11602EA
:201D0C0001F010F904F13E054FF442701B212A4601F008F940F207300E2104F1300201F042
:201D2C0001F919970E3D1A954FF44470314605AA01F0F8F840F2113002210DF1120201F05C
:201D4C00F1F840F21230022104AA01F0EBF840F2133002210DF10E0201F0E4F84FF445700A
:201D6C00022103AA01F0DEF8A44E5046152106F147020AF023F80620A02108F0ABFD0720FF
:201D8C00A02108F0A7FD0820A02108F0A3FD0920A02108F09FFD4FF0FF300AF088FA4FF0B2
:201DAC00FF300AF081FA09F0FFFF06F111020120112102F0EBF902200521324602F0E6F9B8
:201DCC0005203246014602F0E1F906F134020320132102F0DBF9721D48460C2102F0D6F9F2
:201DEC0006F12207062012213A4602F0CFF97F2003F0B8FF7F2814BF0A200F20052107F0EB
:201E0C00EDFA06F0D3F907F0C3FA0AF0E7F809F0A5FB09F0E1F904F1140008F041FD50463F
:201E2C0009F082F9E06859460AF0A0F9C34800684FF0050B44F62062B2FBF0F908200A2141
:201E4C00ADF850004FF0FF36ADF85210D8F80070159614A839468847002840F0268150467C
:201E6C00082102900926ADF84010D8F80070ADF8426010A839468847129E0028029640F04A
:201E8C000881BDF8440010280CD16088BDF84610884207D130460178B02903D101790830BC
:201EAC0009F050FD0298002800F0F3800820ADF838000321ADF83A10D8F800700F960EA8F8
:201ECC0039468847E5E0206909F06EFC071C00F0E0803E78781C761E2FD0761E40F0CE8095
:201EEC000078B978401E24D0401E1ED0801E18D0401E12D0401E0CD0401E06D0C01E40F04D
:201F0C00BD80084604F026FDB8E0084603F0CCFEB4E0084604F0F8FDB0E0084605F09EF83C
:201F2C00ACE0084603F000FEA8E0084604F05CFDA4E0084605F050F8A0E00578681E5FD0E6
:201F4C00401E1FD0801E012848D9801E02D0801E2CD092E019980AF049F810B919980AF064
:201F6C00E1F9E0680A21524608F070FAE0680F21524608F06BFAE0681521524608F066FA33
:201F8C0060A078E019980AF031F810B919980AF0C9F91A9A40F207300E2182F80DA000F070
:201FAC00C1FF5BA067E0C046A409002009F0FAFA09F0C2FA09F022FA09F024F908F07EFA03
:201FCC0006F098FEE0680A21012208F03FFA53A051E0C046C1BB0000FC1A002009F0E2FAF1
:201FEC0009F0AAFA09F00AFA09F00CF908F066FA06F080FE4BA03EE055BE000004CA000087
:20200C00E0685E460F21012208F020FA48460AF02FFAE0680F21524608F018FA48460AF010
:20202C0027FAE068761EEDD14FF441700CA901F0A5FD9DF831608DF829608DF82CA09DF883
:20204C0034108DF82BA09DF835208DF82E109DF830008DF82F209DF832308DF828009DF861
:20206C0033608DF82A3008210AAA50468DF82D6002F08CF82EA005F00BFB25700820ADF8BC
:20208C002000ADF822B0D8F800600997314608A8884720690AF0E8F900283FF414AF03F062
:2020AC0077FF09F06DFA02F085F9A088C108FFF4C5AE20F004002178A080062918BF022979
:2020CC007FF4BCAE19980AF02DF9207802287FF4B5AE564611E0E0680F21012208F0B6F9DF
:2020EC0048460AF0C5F9E0680F21524608F0AEF948460AF0BDF9761CF6B2002EEBD008F086
:20210C00F9F99BE6436F6E6E656374656400C0464164766572746973696E67004572726F8F
:20212C007200C04657616974696E672E2E2E00C0496E697469616C697A656400A4CF000015
:20214C002DE9F04F0820ADF1740DDFF828B3ADF838000120ADF83A00DBF8000001460EA878
:20216C008847C54CBDF83C002082002666701098A0624FF6FF70E08208F080FAB046C44DAB
:20218C002070324633460120CDF800802946019004F1A800139006F029FC0220CDF800808A
:2021AC00324633462946019004F1CC00129006F01DFC0420CDF80080324633462946019056
:2021CC0004F1F000119006F011FC04F14A09042010223146A070484605F0BEF804F15A0AB3
:2021EC0010225046314605F0B7F804F12C073E6004F10A052E70072060721021E6714A4677
:20220C002672022008F056FA03201021524608F051FA04203A46014608F04CFA1398149009
:20222C00CDF85890CDF85CA04FF003081A9705F13A00139005F17F00159005F12E00189070
:20224C0005F16000199034351B950AE06078062818BF072805D1208AE18A1322C0B207F0DB
:20226C00DBFD08200A21ADF830004FF0FF35ADF83210DBF800700D950CA8394688470028E9
:20228C0040F069813046082102900925ADF82010DBF80070ADF8225008A839468847DDF8B7
:2022AC0028A00028CDF808A040F05581BDF82410208A102940F04181BDF82610884240F00C
:2022CC003C8155462A884FF6FF73A91C934200F02C8151460F78A23F00F008812E3F40F0E5
:2022EC002C818978B146002900F0D480891E00F0A880491E01297CD9891E4CD0491E23D0FE
:20230C00491E03D0083900F0E280E4E011980AF00BF802984778002F40F0DD80C188218477
:20232C00018961844089A084129809F05FFE002840F0D180676B002F00F0CD803B68208CFF
:20234C00618CA28C9847F8E0A88808F0D7FE13984946062205F000F826846684A684A87974
:20236C006073129809F0E0FF119809F0DDFF4FF001094FF6FF702779E0824FB9A879082826
:20238C0014BF042005206070484609F02BFCA2E084F801809FE06F78E37A27BB291D0A68BB
:2023AC001398026089888180062767706889E082E8892084288A6084688AA084E878012B4E
:2023CC00207308D11F2007F009FD4FF47A714143129808F0ABF8E8786A892D1D042329461F
:2023EC0006F0ACFD7AE0687831286ED1E670042023E06F78002F68D1A878A78A617803283F
:20240C0012D0E078257927B9012814BF2671E67006E0054304D01498394608F087F8617892
:20242C000729E4D1062008E0062908D0E778002F08BF84F8018051D0022060704EE00720DC
:20244C00FBE76B786F1C002B3FD1ED78A279ADB96078022818D0072816D0062802D1207966
:20246C00012811D1149809F0C1FD68B9012009F0B9FB09E0FC1A00204C0D0020159BC0B239
:20248C00494607F027F938703F78F7B923E0C046F1BB00006F78C7B9169A0220102108F064
:2024AC0025F9179A4046102108F020F9ED1C29681898AF8801600125878029466279199B6C
:2024CC00207C657007F006F940B10820B5E7A888052109F00DFEB9F1010F2ED1276B002F00
:2024EC002BD03F684FB36078B84726E06879132823D12889012810D1A07B02280DD11198B8
:20250C0009F012FF6078062818BF072815D1207CE18A132207F080FC0FE0052007F05EFC9F
:20252C000146119808F002F807E00888C00B04D31A9A0420014608F0D9F8029FDBF8000038
:20254C004FB10821ADF81810ADF81A80CDF81CA0014606A88847608A2779E17842082ED3C7
:20256C0020F0010057EA0105608228D0234802886FB9E179207A8DF80C101B9F8DF80D001F
:20258C003B680DF10E052B60B988A98001E08DF80C80607A8DF81400A17A8DF81510D0B2DA
:2025AC0003A909F09FFD48B10820276B60702FB13D681DB13868014608208847608A8108A7
:2025CC0006D320F002006082304605F0E3F9608AC108FFF446AE20F00400A77B60827F1E8C
:2025EC0003D07F1E3FF432AE3BE601200090618BA28BE38B208B06F0F1F832E65C0D0020C8
:20260C002DE9F84FC64DC74ED5F8EF1FCC4C7368D5F8F30F8843C5F8F30F002BC5F8FF1FFC
:20262C0000F011817788012B00F0D680DFF8FCB2BF4FDFF800A3DFF80093DFF80083022B9D
:20264C0072D0032B40F06A810024B06855F8312C74600028A2F5C062B8BF404211460029CF
:20266C00B8BF494288422EDA111C54BF02206FF00100B26900EB4100032190FBF1F189183F
:20268C00B161F368706998420BD0B1F11002B8BF524230691038B8BF40428242B8BF88B225
:2026AC0009DB98B20090A04830214FF47F42082306F04BFA308A00909B4804214FF4F8021E
:2026CC00122306F042FA5846046001688908FCD20460012644600E203E6003F0F3F850464E
:2026EC000468EFF3118584F3118849460820B0FA80F00A1AD07F431E0128D37704D1424665
:20270C00106820F00800106085F31188EFF3118384F311880420B0FA80F0091AC87F421E0E
:20272C000128CA7754D14EE055F8310CB0F5C06F17D00327776001F0CBFF45F8397C0027B6
:20274C00276020688008FCD27748394660220523009106F0FAF90126266020688008FCD31A
:20276C0064E0002171605846016002689208FCD20160012641600E203E6003F0A3F850462D
:20278C000468EFF3118584F3118849460820B0FA80F00A1AD07F431E0128D37704D14246C4
:2027AC00106820F00800106085F31188EFF3118384F311880420B0FA80F0091AC87F421E6E
:2027CC000128CA7704D14246106820F00400106083F31188BDE8F88F55F8312C02214BF2E5
:2027EC00F52071605043000A37B95649096821F07F414018400801E0002171806060000C1A
:20280C00A0600126E660032745F8397C0027276020688008FCD24448394660220523009151
:20282C0006F093F9266020688008FCD345F8216C45F8397C0820C5F8FF0FC5F8F30F45F8FA
:20284C00396CBDE8F88F40480068006801462020884741F61D574FF002080F2045F82D0C54
:20286C0000214FF4C072072345F8297C2E48CDF8008006F06AF9012744F8047C54F8040C56
:20288C008008FBD3308845F81D7C012821D0032045F8390C4FF00009C4F8009020688008E5
:2028AC00FCD22148494660220523009106F04DF9276020688008FCD345F8217C45F8399C7D
:2028CC000820C5F8FF0FC5F8F30F45F8397C474623E04FF00009C4F80C90032045F8390C73
:2028EC00C4F8009020688008FCD20F48CDF8008049466022052306F028F92760206880081F
:20290C00FCD3202045F8210C45F8399C0824C5F8FF4FC5F8F34F45F8397C7760BDE8F88FF5
:20292C0039400C405826002000A00C4034600C4004800C40A0CF0000F71B0020502100205A
:20294C0038600C4010200940A00100102DE9F04F5FEA0009ADF11C0D00F05581AC480068CD
:20296C00EFF3118280F31188DFF8C8B29BF80400012818BF012003D1022100208BF8041013
:20298C0082F31188012800F03C8109F069FD0390A948046804EB0B0009F066FD4FF000085B
:2029AC00464637460BEB0401CDF810800191B0B90C46084609F050FD0546A868400808D353
:2029CC00E8682969024601209047C0B2002840F01081284609F03CFD0546AC42EDD1002FA8
:2029EC0040F00B8109F030FD0290059789480760012008F07BFD012804D1404607F030F94E
:202A0C004FF00108844F38688068014630468847864819300090D0F8FF0FB9F1000F00F055
:202A2C008C80864C0A34E57905B10126A5790DB146F0020665790DB146F00406DFF8DC91F9
:202A4C0065782DB1B86A006B49460246C88D904725782DB1B86A006B49460246488D904794
:202A6C006F4901200860B86A8069014646F0200088476C4DDBF80010286840F001002860AD
:202A8C00480813D2684809F0F6FA8246BAF1040FF8D0D5F8180220F00300C5F81802B86C19
:202AAC004068024660480321904701E001200490059800F056FDB86A0099806BD1F8FF1F74
:202ACC008047049858B9B86C40680246564851469047D5F8180240F00300C5F818023868C5
:202AEC008068014601208847504801688909FCD3B8F1010F02D1012007F0B2F8B86A406930
:202B0C00014630468847B86A406B0146304688470128F8D166782EB1B86AC06A49460246F2
:202B2C00C88D904726782EB1B86AC06A49460246488D90473A49012008603A4801680322F5
:202B4C0021F00101016001988BF8042009F08CFC0028059818BF01200125C0B9019C2046D5
:202B6C0009F07AFC0646B068C00806D3F0683169024604209047C0B230B9304609F068FC72
:202B8C000646B442EFD102E02948006880472148009F0560D7F8FF0F09F0E2FA019809F0F4
:202BAC0063FC059FC8B9019C204609F055FC0646B068000906D3F0683169024608209047B9
:202BCC00C0B230B9304609F043FC0646B442EFD103E0174800688047022702988BF80450D3
:202BEC0009F02EFC05F0B0FA039809F025FC38460AE00F4800688047022701208BF8040093
:202C0C00F2E7062000E0022007B0BDE8F08FC046A0CF00000C40094090010010B4CA0000A3
:202C2C00282008600C200840004003401410094094CF00005021002090CF0000E41B002002
:202C4C002DE9F04FADF1540DDDF878C008901F9FCDF830C086460D97BEE8000FEC46ACE811
:202C6C00000F9EE800438CE800430B9380690A920778099137F07F070ED0C26887680F9238
:202C8C0001791097467911912E29129602DC31462E290ADA007909E020277E261197D0F85A
:202CAC00C4101296001D10900F912E20139027E1119ABDF90810BA424FEA420002DC129ABC
:202CCC00BA4203DA139AC0EB420003E0119A7800A0EB4200109A099E0F9F105A721C38185B
:202CEC000E900B9E0992401C047807903019814200F3038100250226AA462F460E9890F814
:202D0C000090B14540F3F980BDF90E00B842C0F2F4800698007810F07F0F18D00E98835D7F
:202D2C007BB98019407830F07F0305D14FEAC008B61C4FF0000B85E04006B61C4FEA905BCC
:202D4C0087E04FEA231803F00F0B761C7AE04FF0000802E0761C4FF0000AB1450EDD0E9808
:202D6C00805D00FA0AF008F079FE0828C8BFCAF1080082448044BAF1080FEBD04FF0000B3C
:202D8C0002E0761C4FF0000AB1455BDD0E98805D00FA0AF0C04308F061FE0828C8BFCAF1F9
:202DAC00080082448344BAF1080FEAD04AE0B8F1020F22DB681C84421FDDBDF90A0008EB1C
:202DCC0005018C42B4BFA4EB0509C146B84210DC0D9B73B108980B990C9B4069691809EB41
:202DEC000102FB180490521E684606F085FA07980478A8EB09084D4420E00B99BDF90800D8
:202E0C006918884217DCBDF90C00884213DBBDF90A00B8420FDC0D9B6BB1089B5A68D068E8
:202E2C0054680C9A9B8A09B28446BA18204612B2E04707980478A8F101086D1CAC4204BF60
:202E4C007F1C0025B8F1000F03D0BDF90E00B842ADDABBF1000F3FF451AFBDF90E00B8422A
:202E6C00FFF64CAFBBF1020F20DB681C84421DDDBDF90A000BEB05018C42B4BFA4EB0508C1
:202E8C00D846B8420EDC08980B990C9B0069691808EB0102FB180490521E684606F02CFA78
:202EAC0007980478ABEB080B454421E00B99BDF908006A18904218DCBDF90C00904214DB8B
:202ECC00BDF90A00B84210DC089B5868DDF830C0C1681B8A40680FFA82FE07EB0C0422B243
:202EEC008C467146E04707980478ABF1010B6D1CAC4204BF7F1C0025ABE70B9824180B9449
:202F0C00099807785FB10A98401EB0F1FF3F0A9005D0BDF90C000B998842BFF6C9AE15B006
:202F2C00BDE8F08F03462DE9F041A248A04DA3F2013C002714460E46BCF11A0F1CD8DFE8C2
:202F4C001CF02A0125011E011B00FA00F400DD00CC00C500BE00B600AE00A6001B001B0074
:202F6C009D009000820078006B001B001B001B001B0052001B002600272B06DA022E04D17D
:202F8C002188184607F0A6FCCDE002270DE1012E40F003812846C178012900F0EE80027934
:202FAC002178017182B9002900F0FF804078012800F0D480042800F0D180062800F0CE8029
:202FCC00052800F0CB80F0E02178002940F0ED804178032900F0CD80072900F0CA80052994
:202FEC0040F0E380C5E0012E40F0D7802078012840F0D38005F1F00008F0F8FF50B9384637
:20300C0004F0C8FC071C40F0D0802846CC3009F08BF9CAE01627C8E0022E40F0BE8021888C
:20302C000A29C0F2BA80B1F5486F00F3B6801E3015E0022E40F0B1802188B1F5FA7F80F2D1
:20304C00AC801C300BE0022E40F0A78021880629C0F2A380B1F5486F00F39F801A30018093
:20306C00A3E0022E40F0998021880629C0F29580B1F5486F00F391801830F0E7012E40F0CA
:20308C008C802178022980F288800B300DE0012E40F08380217804297FDA0A3005E0012EE3
:2030AC007BD12178082978DA093001707DE0062E73D121683E300160A688868075E0012E0D
:2030CC006BD12178042968DA0830EEE7012E64D12178042961DCC01DE7E7202E5DDA05F106
:2030EC00890839461F22404604F036F921463246404603F0FDFAAE7139460FE0202E4CDA7A
:20310C0005F16A0839461F22404604F025F921463246404603F0ECFA6E710121287C324688
:20312C00434606F0D7FA07463FE0022E35D121882846143093E7012E2FD12846017901297B
:20314C001BD0C2782178C17062B900292DD04078012803D0042818BF052826D1012008F03F
:20316C0041FD22E0217801BB4178022918BF05291BD1007C08F0F2FE17E0122715E0042E1E
:20318C000BD1216828462C3001600EE0102E04D128465A3005E0102E01D0182705E0284614
:2031AC004A301146102203F0A3FA3846BDE8F0814C0D00204C0D00202DE9F0411C461546E6
:2031CC008C4208BF854282BF00230022E5E0002C08BF002D0AD100290EBF00286FF00000C4
:2031EC006FF0000100F0E1F8BDE8F0815FF000085FF0000E002C08BF8D429CBF2C1C002546
:20320C00070C47EA01470E0CB44208BFBD429EBF5FEA044444EA15445FEA0545070A47EAF6
:20322C0001670E0AB44208BFBD429EBF5FEA042444EA15645FEA0525470847EAC1774E0850
:20324C00B44208BFBD4200F29380870847EA81778E08B44208BFBD427CD8C70847EA41778B
:20326C00CE08B44208BFBD4266D8070947EA01770E09B44208BFBD4250D8470947EAC16715
:20328C004E09B44208BFBD423AD8870947EA81678E09B44208BFBD4224D8C70947EA41675C
:2032AC00CE09B44208BFBD420DD8E60146EA5566EF01B14208BFB84201D3C01BB14158EB30
:2032CC0008085EEB0E0EA60146EA95664FEA8517B14208BFB84201D3C01BB14158EB08081E
:2032EC004EEB0E0E660146EAD5666F01B14208BFB84201D3C01BB14158EB08084EEB0E0E2E
:20330C00260146EA15762F01B14208BFB84201D3C01BB14158EB08085EEB0E0EE60046EA6C
:20332C005576EF00B14208BFB84201D3C01BB14158EB08084EEB0E0EA60046EA9576AF003A
:20334C00B14208BFB84201D3C01BB14158EB08084EEB0E0E660046EAD5766F00B14208BF5A
:20336C00B84201D3C01BB14158EB08085EEB0E0EA14208BFA84201D3401BA14158EB0808F6
:20338C005EEB0E0EA34208BFAA423EBF2D0A45EA0465240A89D3734642461E4617460B467B
:2033AC00024631463846BDE8F08170472DE9FC4F83F0004301E02DE9FC4F1F03FF0847EA44
:2033CC00D2574FEA42284FEA43095FEA595906D147EA080A1CBF00210020BDE8FC8F57F0E8
:2033EC0000575FF4E06E1EF1FF0EF14505D14FF00000190D0905BDE8FC8F002B05D55FF0AA
:20340C00000AD8F100086AEB07070C03E40844EAD0544FEA40254FEA4106760D08D144EA6D
:20342C00050A19BF00210020191C101CBDE8FC8F44F00054764504D10020090D0905BDE8C6
:20344C00FC8F002904D55FF0000A6D426AEB0404B6EB090E08D5A2463C465746AA46454657
:20346C00D046CEF1000E4E46BEF1360F5CBF4FF0000B23E0BEF1000F04BF4FF0000B1AE0A8
:20348C00CEF1390ABAF120092EBF08FA09FB07FA0AFB4BEA080BDEF1200A07FA0AFA38BF14
:2034AC00BA4647FA0EF72DBF28FA0EF8AEF1200E4AFA0EF8D04415EB08057C4154EA050A64
:2034CC0002BF00210020BDE8FC8F002C58BF4FF0000A06D55FF0010A5FF0000E6D426EEB88
:2034EC000404A6F101066D006441FAD515F4806E11D005F480794BEA090B15F5806554F1F2
:20350C00000428BF761C0BD205F400795BEA090B08BF25F4006525F4E0656D0044EB040433
:20352C00B61CDEBF00210020BDE8FC8F5FF4E06E1EF1FF0E76450AD34FF0000013F00043C5
:20354C00FF21C900C91D09051943BDE8FC8F270547EA1530210B41EA065141EACA71BDE89B
:20356C00FC8FF8B504460020C4F209000068800880F0BB8007F0ACFD42F22421C4F208016B
:20358C000A68002112F0030F18BF0121D20828BF41F00201002C18BF41F0040143F6F866BA
:2035AC00C2F2000696F90720821A052A04DAB2798A4208BFB2886FD041F29C340F28A0F1E4
:2035CC000F02C5F2000424DB02EB02121712072F88BF07273D46062D88BF062554F825C0E6
:2035EC000423A64603EB85035EF80330CD08A3EB0C0303F0FF0C24BFC3F30725AC448D08F3
:20360C0024BFC3F30745AC444D0805D30CEB136C02E04FF0000C674654F82730CC0803F0E2
:20362C00FF0524BFC3F3072425448C0824BFC3F3074425444C0828BF05EB1365A2EB072213
:20364C001FFA8CF3534380330022082B88BF012243F6B473C5F200031C681B684FF4D07C0E
:20366C0034275219241703F0FF0307FB14C45C434FF6FF73B4FBF2F2934238BF1A1C8028DB
:20368C0092B2B28005DA10F1800F03DA6FF07F0000E07F20F071B17142F20800C4F2090081
:2036AC0001681F2A4FF00000316008D340F2FF11914206D25208401C9142FBD301E01F223B
:2036CC00B2800F3A4FF600714FF0350E1209C8F2A401C4F2090E40EAC2000143CEF8FB1FD4
:2036EC004FF0000CCEF8FFCFF8BD43F6FE624FF6FD50082141F2300EC2F20002C0F2A40059
:20370C001170C4F2090ECEF80000F8BD2DE9F04F8346ADF15C0D07F0A9F84FF000090128A6
:20372C0005D108F0C2F9022808BF4FF0010954490868C0F38150012806D151F80C1C012097
:20374C00090E884040EA09094E494F484F4D09780068C0F34600286007F088F82C460128FC
:20376C0018BF206802D12068401C206038B1FF2204F1400107467F1E01F8012BFBD1DBF8B9
:20378C000010002601F0FF02FF2A1BD08C46DE46324601270CF0FF01884204D907FA01F3B3
:2037AC0019EA030F01D0022067E00CF0FF015EF804CF61181E4381F84020521C0CF0FF016C
:2037CC00FF29E9D1092001F037FDC4F804B001A800212422082308F02BFE4FF0010804F1A4
:2037EC00240001AA8DF81C80414608F01DFE23682BB300276035BA4608FA07F019EA000F03
:20380C0017D1064204BF07F0FF0141F4C04104D0E01990F840005BF820101D4802F000FB12
:20382C00F8B24FF0FF3108F0EFF82368C5F800A001E0042028607F1C2D1D9F42DCD30AA8E8
:20384C0000213022082308F0EBFD002504F1080010210AAB0F4A009508F0DEFD0E4A52F873
:20386C000D0C414620F4F85040F4005042F80D0C0A4BC2F8FF1F2846196017B0BDE8F08F6A
:20388C00B43F0050003F002080120840E83B0020007FC767299700000D3009400800094019
:2038AC002DE9F84F0D4681462868D9F80440D9F808B0002800F0A98008F0AAFD616D21B1D7
:2038CC0008F0A2FD032028749FE001212974656508F09AFD94F8700030B194F859204C4978
:2038EC00A06E114307F0B0F8DBF80010486840F002004860D9F804C0D9F80830D5F800E003
:20390C009CF8582019681FFA8EF09040B1F1804F1FFA80FA14BF3F4E3F4E4048AA6832B931
:20392C009CF858108F00C2590CF1720108E09CF858108F000AEB0201C21952F8082C491E3A
:20394C00B2607160196801F10808C6F80080B2684FEA0E1143F6F07E10390EEA01010A430E
:20396C00B2601A68B2F1804F14BF2D4A2D4A6E68002E04BFC0599E1D04D0C01950F8100CC8
:20398C005644761E90601660C2F80480906801439160DCF86C00DF6841689A68096847EA48
:2039AC00020088621968486A40F003004862DBF80010486940F0010048616E6808F028FD9E
:2039CC00194D0746287801280AD016F0704F02D1102006F0A7FE042006F0A4FE01202870AD
:2039EC00384608F011FD207828B961683834204608F006FD10B10120BDE8F88F484600F09C
:203A0C00E9FE2046002108F0FBFC0020BDE8F88F00000680000500203004002094CA000094
:203A2C001005002040040020063F0020B0B5456884684D48297BADF1180D01291AD0014627
:203A4C002F7E227C637C494837F0010741EA020240EA030001904648009218BF011CA27C51
:203A6C001143029195F859200323FF2A13D0014610460DE0A17C627C237C41F00041024340
:203A8C0043F00043029195F85900009339490192014304230391FF2105F15C004DF823109A
:203AAC00694602F0EBFFA866002808BF002058D0287B314951F82000012828D02068B0F15A
:203ACC00804F14BF22220A22217CA86E07F082FC2068B0F1804F14BF21220922617CA86E74
:203AEC0007F078FC2068B0F1804F14BF24220C22A17CA86E07F06EFC95F85910FF292FD05F
:203B0C002068B0F1804F14BF23220B2225E02068B0F1804F14BF21220922217CA86E07F074
:203B2C0059FC2068B0F1804F14BF22220A22617CA86E07F04FFC2068B0F1804F14BF2422A3
:203B4C000C22A17CA86E07F045FC2068B0F1804F14BF23220B2295F85910A86E07F03AFC4A
:203B6C00012006B0B0BDC046000480A0004000800004C0A0002000807CCA00004D4B2DE913
:203B8C00F04F0C46343B998BADF13C0D86460991587B0E90598B089158780D90198B079111
:203BAC00988C0C90D97A588C0691D3F82CA00B90997A188C059193F804900A90597A93F8D5
:203BCC000C800491197AD88B0391D9795A7902919979DE8A0191D9789F8A00919978AEF5AB
:203BEC00407C0025BCF11D0F10D8DFE80CF05D5653504E4C4A4743403E3C3937350F3432BC
:203C0C00302E2D272422200F1D1B1A18BEF1270FA8BF022549DA704606F0E0F814E0DDF824
:203C2C003880C146CDF834900D98059016E00C980B900B980A900A98074622E0443318689C
:203C4C0020609888A08030E00990099808900898079007980690069E268026E005980490C9
:203C6C000498039001E03E33E9E7039802900298009008E0019A03F1890111E003F16A013F
:203C8C000EE03846E0E700990EE03833D7E7C4F800A00AE003F15A0101E003F14A0110224E
:203CAC00204602F025FD00E0217028460FB0BDE8F08FC046800D00202DE9F04F8046D8F81E
:203CCC000450D8F808400F46ADF1540D08F0A0FB95F8981004F10409012903D108F094FBC9
:203CEC00002077E04FF0010B85F898B008F08CFB1FB90DA808F04AF90DAFF86828B9D8F81D
:203D0C000800067B90F80DA002E0067890F801A0FF2EE5D0BAF1FF0FE2D0FF222F49304CEE
:203D2C00139241EA0600119041EA0A011291201D11A902F0A3FE00282060D1D031460D22AE
:203D4C0007F048FB206851460E2207F043FB3878287078686860387A002130220823E86011
:203D6C0001A808F05DFBCDF81880002400941D4AD9F8001005F1100001AB08F04DFB01A846
:203D8C0024220823214608F053FB05F12C008DF81CB0594601AA08F047FB287838B905F17B
:203DAC004800214601AA08F03FFB0F486860AC672C72EC6799F8040001F03EFA404605F00F
:203DCC0035F905F18400094A00940421434607F0EFF8404615B0BDE8F08FC04600200084A3
:203DEC00C83E0020AD4F00006DC2000039C00000FEB51446B1F90000B1F904200027FF259D
:203E0C00C310ADF80070D61000F00700ADF8027002F00702ADF8043045FA00F0ADF80660AC
:203E2C00C2F107028DF8080005FA02F03D4A8DF80900BDF80600BDF8043098421BD19DF828
:203E4C0008309DF80900B1F9027018408DF80800BDF80410B80000EBC7001218891824B9A4
:203E6C009DF808200878904303E00A789DF8080010430870FEBD4888B1F90630ADF8020047
:203E8C000EE006789DF80910314303E09DF809600178B1430170BDF80200401CADF802000F
:203EAC00BDF8020083423BDBBDF80260BDF80400B10001EBC60151184018C4B99DF80860F5
:203ECC000178B14300F8011BBDF80410ADF80010BDF80610BDF80060491EB142D6DD00F8F2
:203EEC00017BBDF80010491CADF80010F0E706789DF80810314300F8011BBDF80410ADF863
:203F0C000010BDF80610BDF80060491EB142B8DD00F8015BBDF80010491CADF80010F0E7AC
:203F2C00FEBDC046220500202DE9FC4191EA03084CBF4FF000484FF000084FEA03354FEA11
:203F4C00153556006D414FEA43075FEA575711BF45F4001500210020BDE8FC814FF4E06E7B
:203F6C001EF1FF0E77456FD04FEA01334FEA133342005B414FEA4104640D11BF43F400134B
:203F8C0000210020BDE8FC8174455DD0E41B002100205FF0360EAB4200D1B24205D34041EE
:203FAC004941921B63EB050301E040414941BEF1010E05D053EA020702D052005B41EAE712
:203FCC00BEF1200F09D2BEF1160F0CD3CEF1200720FA07F100FA0EF00FE0AEF1200E00FAC3
:203FEC000EF1002009E001FA0EF1CEF1200720FA07F741EA070100FA0EF011F4001F02D193
:20400C0040004941641E401C51F1000111F4800F1ABF641C21F4800121F400114FF4407706
:20402C00FF37E419DEBF00210020BDE8FC8107F58067BC4208D249084FEA300041EA04514C
:20404C0041EA0801BDE8FC810020FF214FEAC101C91D4FEA015141EA0801BDE8FC81704745
:20406C002DE9F04304466668A5680F46ADF1540D08F0CEF996F8A4102D1D012903D108F031
:20408C00C3F9002076E04FF0010986F8A49008F0BBF91FB90DA807F0CDFE0DAF4FF00008E9
:2040AC00C6F854803869306178697061387E3076387B307338783070786886F8708070605E
:2040CC0078694146092828BF494686F85810687801F0B2F8204604F031FCE87B86F85900A3
:2040EC002046FFF7A3FC50B9687801F0EBFB08F08FF986F8A48008F087F9444639E001A813
:20410C0041463022082308F08BF90694CDF800801A4A297806F11C0001AB08F07DF930785A
:20412C0078B901A841462422082308F081F906F138008DF81C90414601AA08F075F91048DF
:20414C0000E0B868B06003F001FE317BF066012906D1B06E0B4908F009F8B06E00B1846030
:20416C0006F19000084ACDF800800421234606F01FFF204615B0BDE8F083C046E149000000
:20418C0075C2000091A40000CDC100002DE9F0470C469046DFF8F890414D3F4F3D493F4A1A
:2041AC00D9F8003008284FF00006ADF1180D69D8DFE800F05F5B4C4844403A1105C0072CAD
:2041CC0059D14046828805F108018A8087798F710068086057E003940420ADF80A004FF060
:2041EC00080AADF808A002A89847D8B904980746C0B1696805F1170088420BD005214846A9
:20420C00ADF802106A68ADF800A00068019201466846884738464146224602F069FA6F6074
:20422C002C7030E013262EE0142C24DC01F11505294601E0142C1EDC0D460BE0142C1ADC35
:20424C003D4606E0142C16DC3D4603E0142C12DC1546153528463146152203F07DF828468C
:20426C004146224602F044FA0DE0142C03DC1546DEE7082C01D0182605E0404642686A39EC
:20428C004A60A5E70226304606B0BDE8F087C046FC1A0020851900205B1900203119002074
:2042AC000C1900202DE9F0410446E08840F2FF760D46A71D0246C2F30A139E42C0F30A102F
:2042CC0066D033B9204601F08FFC0028C8BF00216ADC3A884519AE424FDD002D05DD48F233
:2042EC000F00104040EA051043E06D1E02F00F01D00B15F1340F41F010014FEAC030E18074
:20430C0004DA0021A1806180218034E02FB217F1100F0FDC6388A288E1881D461346103767
:20432C000A463FB2002117F1100FF6DDA28025806380E18079420FB2CFB1E388618825880D
:20434C00A288C7F1100643FA07F801FA06FE3D4102FA06FCA4F806804EEA050539413A4149
:20436C00B34025804CEA010161801343A380E28810434FF0FF31E08016E00D49D00BC00391
:20438C000EBF03C903C981F0004184E8030008E012F00F0F07D1A08828B9608818B9208841
:2043AC0008B9012100E002210846BDE8F081C046002100202DE9F0413E4F3878002876D06E
:2043CC003D4C208910F07F0F00F07F086DD005F05CFF3A4E21783578A0700DB902293AD133
:2043EC002279C30917D2400824D304F1140005F0F3FE04F11A0005F0B3FEE578E088002D8C
:20440C0008BF217816D00021E17021784FF47A7292FBF0F009E0521CD0B20228207109D135
:20442C00E0884FF47A72B2FBF0F002B2500000EBC200E0600025022935700CD12089C00917
:20444C0009D304F1200000F0C1FB052822D008B104F00CF92178E66816B901291BD124E012
:20446C00022904F1140509D0022020700026267100F04EFF10B1404601F08CFA2089000A01
:20448C0002D3E068401EE060002012212A4603F08BF80AE0E560002020710126267000F08F
:2044AC0037FF10B1607800F0EBFD00203870BDE8F081C046043F002054230020033F002009
:2044CC002DE9F0430646ADF11C0D07F095FF06F0FFFB4FF000090546CDF8089007F076FE9E
:2044EC0030F0010002D00298A84202D16FF0040068E070684C4658B1B0F1FF3F05D001A9EA
:20450C0006F0B6FB30B107465BE04FF0FF3000E02046019007F06CFF0199012701EB000822
:20452C0002E013463DE001936868019907F068FF00282FD003A804F05EFBE0B9BDF810003E
:20454C00694606F0ADFB90B9B268BDF80000BDF812101346059A984748B1BDF80000BDF8D9
:20456C001210B081059BF1814F46336112E0059902A806F0E3F90198641CB0F1FF3FD3D0FA
:20458C000028D1D007F034FFB8EB000302D001989842C8D2029E07F0F1F905F1080146B120
:2045AC00334653F80C2C002ABBD10A6843F80C2C0E6007F0B7FB24B1686807F015FF641E0F
:2045CC00FAD1384607B0BDE8F0837047FEB50846002608AFC410FF253988ADF8006000F074
:2045EC000700D71002F00702ADF8024045FA00F0C2F10702ADF80470344F8DF8060005FACE
:20460C0002F08DF80700BDF80420BDF802401846A24216D19DF806309DF807201A408DF8B1
:20462C000620BDF802408600002906EBC00217443C4408BF9DF806101ED021789DF8060080
:20464C0041E0BDF80240820002EBC002BF18E419E9B99DF806102078884304F8010BBDF8C4
:20466C000200ADF80000BDF80400BDF80010401E884204DC9DF807102078884324E004F8F2
:20468C00016BBDF80000401CADF80000EBE721789DF80600084304F8010BBDF80200ADF837
:2046AC00000006E004F8015BBDF80000401CADF80000BDF80400BDF80010401E8842F1DC87
:2046CC0021789DF8070008432070FEBD220500202DE9F843804607F03DFD002100B9012178
:2046EC003A4D2D1F28680028FCD0DFF8DC90012609F10407FC6A2E6009B107F031FD344899
:20470C00C4F3072100F10804616007F023FD0146002001B93046014628680028FCD03F68D0
:20472C002E6009B107F01CFDC7F38441A8F5C060A160B8F5C06F2060B4BF6FF00103022381
:20474C00626803EB4003032093FBF0F00918104602290FDB1E290BDB3F28B9BF521C401C5F
:20476C003F22101CE2603029B4BF10391F210DE0E0600BE010F13F0FACBF401E6FF03F003B
:20478C00E06011F1100FACBF10310021216180B24FF47F42082330210090484604F0D5F9CB
:2047AC000096484604214FF40032112304F0CDF9208A04214FF4F80212230090484604F0EE
:2047CC00C4F9BDE8F883C04600A00C4004800C40582600202DE9F04707467C68BE6807F0F5
:2047EC0017FE0834E16C002968D007F00DFE3168486820F0020048603168486A20F003004B
:20480C004862606EF5684168B268096845EA0200C1F804053168486920F0010048613068F4
:20482C004FF00108C0F820803068B0F1804F14BF40F201104FF48070224909688847384652
:20484C0004F07CF8E06CD0F804A007F0E1FD1E4D8146287850B11AF0704F02D1102005F0C3
:20486C00D9FC042005F0D6FC00202870484607F0CBFDE16C087C042802D003200874E16CAC
:20488C00606E4368B268F0681B68454610438540DD623068B0F1804F14BF0C480C480268CF
:2048AC0008689204A0EB9250401E0860206800230246E36438469047BDE8F08707F0A4FD70
:2048CC00BDE8F08778000010063F002008050020380400203A482DE9F04F0821ADF11C0D73
:2048EC000068ADF8101001460120ADF8120004A88847374CBDF8140060800698A06003F028
:20490C0045FD04F10C0006F0F3FF4FF0000884F800804FF47A76A68006F070FD02206421BA
:20492C00012207F06BF94FF0FF3104F1100001F09BFD2448244D07682448B5FBF7F9B0FBED
:20494C00F7FA38E0012006F081FD484607F090FD02A804F04FFF8346404606F077FDBBF14A
:20496C00000F1CD002A801A96A4600F029FA9DF805308DF809309DF804208DF808209DF896
:20498C0006008DF80A009DF802108DF80D109DF801308DF80C309DF800208DF80B204046BB
:2049AC00062102AA02F054FFA0887043401BB0FBF7F007F05DFD20780128C3D05046F8E7F1
:2049CC00FC1A0020A4CF00008038010040420F00D81000202DE9F0470646B1680A687468D0
:2049EC00D06908341062400842D2606E40680268CD68D2F80405284206D00B68586A20F0FB
:204A0C0002005862C2F80455D2F804258868024258D00A68506A20F001005062606E406807
:204A2C0089680068C0F80415E06C00250574E76CD7F804A007F0ECFCDFF88C80814698F877
:204A4C00000050B11AF0704F02D1102005F0E2FB042005F0DFFB40460570484607F0D4FC68
:204A6C002068E5643946024630469047BDE8F0870A68506920F001005061E76CFFB9506879
:204A8C0020F002005060506A20F003005062606E8B684468CF682168B2F1804F47EA0300F6
:204AAC00C1F804050CBF4FF4807040F20110074909688847304603F041FFBDE8F08730461C
:204ACC00FFF788FEBDE8F087063F0020780000102DE9FC4191EA03084CBF4FF000484FF09B
:204AEC0000084FEAC32545EA52554FEAC2264FEA43077F0D11BF45F0004500210020BDE84B
:204B0C00FC815FF4E06E1EF1FF0E774555D04FEAC12343EA50534FEAC0224FEA4104640D77
:204B2C0011BF43F0004300210020BDE8FC81744543D0E419A3FB0501A3FB06E7A2FB0663C2
:204B4C001EEB030E57F1000751F10001A2FB05631EEB060E57F1000751F10001FF1851F190
:204B6C000001C01951F100014CBF4FF4806E4FF4007E10EB0E0051F1000148BF641C01D467
:204B8C00400049415FF44077FF37E41BDEBF00210020BDE8FC8117F58067BC420DD24FEAF7
:204BAC00D02040EA41504FEA41014FEA113141EA045141EA0801BDE8FC810020FF21C90069
:204BCC00C91D090551EA0801BDE8FC81FEB53D4C05460621601C017007F072F918B907F0AA
:204BEC00CBFA0020FEBD002601206821667002F029FC2220694601228DF80000372006F066
:204C0C002DFB08B90520607007F0B6FA6078002818BF301C54D101200C2102F013FC02204A
:204C2C006946012207F09FF800283CD09DF80000400836D303200DF10101072207F093F820
:204C4C0068B39DF80700000927D29DF802709DF801009DF804609DF803109DF806309DF8F1
:204C6C00052040EA072041EA062142EA032200B2288009B2698012B2AA80B4F908305843A3
:204C8C0000122880B4F90A00414308126880B4F90C0042431012A88007E0032004E0042077
:204CAC0002E0022000E00120607011208DF80000694601220A2006F0D1FA07F05DFA60787A
:204CCC00FEBDC046EC24002038482DE9FC4700680068014620208847354DDFF8D8A04FF0C8
:204CEC0002080F2000214FF4C072072345F82D0C41F61D5045F8290C5046CDF8008003F055
:204D0C0024FF2D4C012644F8046C54F8040C8008FBD3DFF8A890B9F8000045F81D6C0128B7
:204D2C001FD0032045F8390C0027276020688008FCD23946504660220523009103F005FF00
:204D4C00266020688008FCD345F8216C45F8397C0820C5F8FF0FC5F8F30F45F8396C464606
:204D6C0020E00027E760032045F8390C276020688008FCD2CDF800805046394660220523AB
:204D8C0003F0E3FE266020688008FCD3202045F8210C45F8397C0824C5F8FF4FC5F8F34FFC
:204DAC0045F8396CC9F80460BDE8FC87A001001039400C4000A00C4038600C4058260020D4
:204DCC00F8B53A4BC578047944EA05242501B3F90270447990F800C045EA24151C88EE1031
:204DEC00A6EB4406C4EB251464432513B3F9044077436C43A41304EBE724877804EB840584
:204E0C0080352E12457845EA0C20B3F90A500E60000140EA271E6010A0F57A4081104943B9
:204E2C004C136C43B3F9085045436D1005EBE4054FF4004404EBA544DD886543EF1331D007
:204E4C009C46BCF90E40BCF91030BCF90C50164EC91260434B4340F63544290403EB4003DE
:204E6C0001EBA30104FB1E65081304FB1050C10F19BFB0FBF7F040004000B0FBF7F0BCF999
:204E8C001410BCF91650BCF91240C30886085B4371435B0B49136B4301EB2331641800EBFE
:204EAC0024101060F8BDC046000050C39C3E0020F8B507F04FF9314C256805F00C000C284F
:204ECC0055D0E8082ED22E480068EFF3118780F311882C4EB068002107F082FA7169B26932
:204EEC00091A8A4238BF002187F3118826480068884217D22548264A264D0368126828683E
:204F0C00B3FBF2F22018891A07F066FA2868201807F05EFA0120FDF719FD2868201807F0C0
:204F2C0053FA25E0280922D21B48690939BF016821F00101016841F0010102460160D2F896
:204F4C0098004FF0805440F00300C2F89800D4F8B8018069014620208847D4F8B8010F4C71
:204F6C00806B2168804701202060206800E030BF07F0F6F802F052FFF8BDC046502100207E
:204F8C00A0CF00007801002098CF00009CCF0000A4CF000088CF00008C2108402C200940D7
:204FAC00F8B5064635480068B46875684068014620688847226801210835C2F81C1868B1D8
:204FCC002B78FF2B0AD0FF214009297051D20420C2F80408022007F073F94AE02878002898
:204FEC0047D0401E13D0401E02D0FD3844D03DE0D2F80828A86E0270A86E401CA866EF6E58
:20500C007F1EEF6619D0012F88BF092127E06F6E7F1E6F6613D1EF6E7FB10220E96D287031
:20502C002268097C012F4FEA410141F00101C2F8001894BF03210B2113E004210DE0286E67
:20504C0022680078C2F80808286E022F00F10100286604D2EF6E17B90521002028702268C6
:20506C000220C2F8041807F02BF9F8BDFF202870F8BD304603F0DEFBF8BDC046AC01001036
:20508C00F8B5064606F01CFF00284FD00120682102F0D8F900284BD02E4D09202C1D0122F3
:2050AC00207021466B2006F0D9F800283ED007202871214601226C2006F0D0F8002835D0A4
:2050CC0001271D2021462F713A4606F0C7F800282CD04020287121463A46382006F0BEF81B
:2050EC0020B3C020287121463A46692006F0B6F8E0B12E711F2021463A4606F0AFF8A8B1F8
:20510C000620287121463A461E2006F0A7F868B12920287121463A466B2006F09FF828B137
:20512C00E91C1C203A4606F099F818B907F024F80020F8BD3A2021463A4606F014FE07F022
:20514C001BF8002129706869034905F07DFC3846F8BDC046EC2400200700068031482DE966
:20516C00F04F08214FF0010BADF1140DADF804100068ADF806B0014601A888472D4DBDF847
:20518C00080068800398A86003F0B8F905F10C0006F010FC4FF47A764FF000090422AE80F9
:2051AC00484685F80090014606F04CFD29785846024606F047FD07F0B0F8022064215A461B
:2051CC0006F040FD4FF0FF3105F1100001F04CF915491648164F0C68B0460646B0FBF4FA75
:2051EC001AE0584604F01CFD504607F041F90DF10200694601F0CEFC484604F011FD4846AF
:20520C0004216A4602F03AFDA88808FB00F0801BB0FBF4F007F02CF928780128E1D0B7FBEF
:20522C00F4F0F7E7FC1A0020A4CF00003832040040420F00481600202DE9F04105462E4872
:20524C000068EFF3118880F311882C4A505D411C0028515549D12A4CA900675C07F03F00D3
:20526C003F280C4401D0FFF7E7FF607800F03F003F2801D0FFF7E0FF668837F07F0019D12C
:20528C00F80911D24FF08054D4F8B801406901463046884704F5DC742068406B0146304618
:2052AC0088470128F8D120E0164850F82610012088471AE04FF08054D4F8B801C069014653
:2052CC0030468847D4F8B801406A014630468847D4F8B801C06A01463046884701210A4A11
:2052EC000A48116001688908FCD388F31188284606F0D4F8BDE8F081A0CF0000E41B00202E
:20530C00B4CA0000FC1B00202820086028200840F8B5334D2F49686905F096FBFF20A87059
:20532C0000242C7068216C70012002F08BF8002808BF271C4CD02C4680200122211D207154
:20534C006B2005F08BFF06F017FF234923480D68B0FBF5F007F08CF803F0B6F9261D071CCC
:20536C0036D0022003F044FD06F0AAFD60B304F0EFFA58B301200C2102F064F830B30F207F
:20538C003070314601220A2005F068FF42F21070B0FBF5F007F06CF804F10E011020032249
:2053AC0006F0E1FC04F10E0140B108788030208148788030608188788030A08101220B20D8
:2053CC003146227105F04AFF06F0D6FE04F008FC3846F8BD07000080A4CF0000A086010063
:2053EC00EC2400202DE9FF4782460D460CAF287A3F8899461446800928BF082055D2084690
:20540C0002A905F041FF012808BF01204DD0BDF80800DFF89C8042F60211FF26401A2ED0FA
:20542C0048F26311401A012827D827BBB9F1010F1FD1BDF808104AF666200027884202D14D
:20544C002178032913DA2178EA681170BDF80810884205D0E968404688421AD13E461AE0AC
:20546C00E9684046401C884213D1012613E080270FE00D270DE00B270BE00A2709E00097A0
:20548C000121224650464B460191294603F032FB0746FF2E08D04046001D006820B1006898
:2054AC0010B101463046884738460090BDE8FF879C2200202DE9FE4F82460D460CAF287AA1
:2054CC003C8898469146800928BF082056D2084602A905F0D9FE012808BF01204ED0BDF8DE
:2054EC000800DFF89CB042F602110026FF27401A2ED048F23F11401A34D0401E14D0801EBE
:20550C0024D10CBBB8F1010F1CD199F800000A2808DBE9680870E9685C46601C884221D183
:20552C00022721E080261DE074B9B8F1010F09D199F80000E9680870E9685C468C4211D1D5
:20554C00012711E00D260DE00B260BE00A2609E0009401214A46504643460191294603F078
:20556C00C9FA0646FF2F08D05846001D006820B1006810B10146384688473046BDE8FE8FB1
:20558C00F81D00202DE9FE4F82460D460CAF287A3C8898469146800928BF082056D2084668
:2055AC0002A905F071FE012808BF01204ED0BDF80800DFF89CB042F602110026FF27401AD0
:2055CC002ED048F21F11401A34D0401E14D0401E24D10CBBB8F1010F1CD199F800000A2834
:2055EC0008DBE9680870E9685C46601C884221D1022721E080261DE074B9B8F1010F09D13B
:20560C0099F80000E9680870E9685C468C4211D1012711E00D260DE00B260BE00A2609E013
:20562C00009401214A46504643460191294603F061FA0646FF2F08D05846001D006820B164
:20564C00006810B10146384688473046BDE8FE8F901E00202DE9FE4F82460D460CAF287A30
:20566C003C8898469146800928BF082056D2084602A905F009FE012808BF01204ED0BDF80C
:20568C000800DFF89CB042F602110026FF27401A2ED048F2FF01401A34D0401E14D0401EAC
:2056AC0024D10CBBB8F1010F1CD199F800001E2808DBE9680870E9685C46601C884221D1CE
:2056CC00022721E080261DE074B9B8F1010F09D199F80000E9680870E9685C468C4211D134
:2056EC00012711E00D260DE00B260BE00A2609E0009401214A46504643460191294603F0D7
:20570C00F9F90646FF2F08D05846001D006820B1006810B10146384688473046BDE8FE8FE0
:20572C00241F00202DE9FE4F82460D460CAF287A3C8898469146800928BF082056D2084698
:20574C0002A905F0A1FD012808BF01204ED0BDF80800DFF89CB042F602110026FF27401AFF
:20576C002ED048F27F11401A34D0401E13D0401E24D10CBBB8F1010F1CD199F800000A2833
:20578C0007DBE9680870E9685C468C4222D1022722E080261EE07CB9B8F1020F0AD1E868B5
:2057AC00494609880180E9685C46601C884211D1012711E00D260DE00B260BE00A2609E0B3
:2057CC00009401214A46504643460191294603F091F90646FF2F08D05846001D006820B194
:2057EC00006810B10146384688473046BDE8FE8F541D00202DE9FE4F82460D460CAF287ACC
:20580C003C8898469146800928BF082056D2084602A905F039FD012808BF01204ED0BDF83B
:20582C000800DFF89CB042F602110026FF27401A2ED048F26F11401A34D0401E14D0401E8A
:20584C0024D10CBBB8F1010F1CD199F800000A2808DBE9680870E9685C46601C884221D140
:20586C00022721E080261DE074B9B8F1010F09D199F80000E9680870E9685C468C4211D192
:20588C00012711E00D260DE00B260BE00A2609E0009401214A46504643460191294603F035
:2058AC0029F90646FF2F08D05846001D006820B1006810B10146384688473046BDE8FE8F0F
:2058CC00B81F00202D492DE9F0410968EFF3118881F311882A4B195C4A1E01291A5449D10B
:2058EC002849800045180E5C6F8836F07F0019D1F00911D24FF08054D4F8B80180690146BA
:20590C003846884704F5DC742068406B0146384688470228F8D120E01D4850F82710002027
:20592C0088471AE04FF08054D4F8B801006A014638468847D4F8B801806A014638468847F9
:20594C00D4F8B801006B01463846884701210E4A0E48116001688908FCD306F03F003F2811
:20596C0001D0FFF7AFFF687800F03F003F2801D0FFF7A8FF88F31188BDE8F081A0CF000029
:20598C00E41B0020B4CA00002820086028200840FC1B0020BCB5074606F092FA00285AD055
:2059AC002E4C207840BB3FB306F08AFA10B30120682101F047FDF8B10920211D20710122FC
:2059CC006B2005F04BFC251DA0B13F202870294601226C2005F042FC0021217050B1E11C69
:2059EC001C20012205F03AFC20B13A202946012206F0B9F906F0C0FBF8B2277040B380F057
:205A0C00FF0020716821012001F01CFD28B3211D6C20012205F022FC06F0AEFB247806F02A
:205A2C004FFAC4F38014B0B103F092FFA8B101200C2101F007FD80B1002C0CBF00201120CC
:205A4C00694601228DF800000A2005F007FC02E004F0C6F8BCBD06F08FFBBCBDEC2400208B
:205A6C002DE9F04782460E467068DAF80810DAF80450002401F1040810B9F06800284ED040
:205A8C00287801280FD106F0C3FCA96F39B1E96F8E61EE6706F0B8FC0120BDE8F087AE6702
:205AAC00EE6706F0B1FC06F0B3FC1E4F81463878012804D0042004F035FE012038704846BA
:205ACC0006F0A2FC05F12C094FF0FF31484606F097FCD8F8000006F073FC5046314601F042
:205AEC00C5FFD8F8000006F067FC287898B905F148004FF0FF3106F083FC06F089FC0646D3
:205B0C00387818B1042004F085FB3C70304606F07BFC287A00B90124484606F065FC20460E
:205B2C00BDE8F087013F00201CB52D4C401E02D0401E44D01CBD06F03DFB400931D32089F4
:205B4C00FF2831D00120694604F048FCBDF8000010F07F0F18D0BDF800002081022002F074
:205B6C0029F906F0ADF9A8B11E48006841F28831B1FBF0F006F07CFC04F010FBBDF800108A
:205B8C0041EA0020208105E0BDF800002081002002F010F904F108020120022101F004FD82
:205BAC0007E0FF20083420800120FF21022205F00FFE00201222014605F00AFE1CBD0220FD
:205BCC000DF1020104F00AFC9DF80200410001EBC001E18004F1280003F0E0F81CBDC04611
:205BEC0054230020A4CF0000F8B5C188CA0B11F00F074FEAC23C4FF00101C78006D1878808
:205C0C0027B9478817B90788002F46D0002308E00288858803804488C5801039848009B2E7
:205C2C004280C288002AF3D0102A18DA848845880688570063006A00491E43EAE53347EACB
:205C4C00E43742EAE63509B276009CB2BAB2ADB2B6B2102AEDDB068045808480C280202A47
:205C6C0017DB4688058887887B106D107410491C43EAC23345EAC635521044EAC73409B239
:205C8C00202AADB2A6B29FB2EEDAC280878005804680C28802F00F02C280C2884CEA020237
:205CAC00C2800846F8BD704770B52C4E2C4D012806D068BB31460020491C05F045FD27E068
:205CCC003146012005F040FD34462078022817D0621C0020012102F0B9FF28680A21002284
:205CEC0004F0B4FB28680F21002204F0AFFB606806F06AFB28681521002204F0A7FB07E0ED
:205D0C0006F058FA621C60700121002002F09EFF31460878012820D13446286861784908CB
:205D2C0034BF002201220A2104F090FB28686178890834BF002201220F2104F087FB6178C4
:205D4C006068C90807D206F03FFB28681521002204F07CFB70BD06F03BFB70BD2025002057
:205D6C00B009002038B52D4C054600206908A4F10104207009D300F009FD002808BF207879
:205D8C0003D0207840F001002070A90809D302F0ABF8002808BF207803D0207840F0020085
:205DAC002070290909D300F03FFD002808BF207803D0207840F008002070E90809D303F093
:205DCC0074FA002808BF207803D0207840F004002070690909D302F077FC002808BF207859
:205DEC0003D0207840F010002070A90909D303F0D7FE002808BF207803D0207840F02000C4
:205E0C002070E90909D306F08AF8002808BF207803D0207840F04000207038BD593E002002
:205E2C00F8B50D46EEB2290824BF27494D40274BB400DFF89CC0195900EA05020CEA0202EF
:205E4C0000F4E02C85EA0107BCF5E02F00EA070721EA0001C7F3006742EA010201D1510E7A
:205E6C0014D300F4E0210F4310D002F4E027B7F5A02707D0B7F5803704BF22F4003242F41D
:205E8C00A02203E022F4803242F4C0221A51114CC10D04D3C5F38052A4F180018A55000E77
:205EAC0011D306F0B5FA290E03D201220021B24002E00122B240114650342368934319437C
:205ECC00216006F0A1FAF8BD006000A000100840007F077F8020024029482DE9F0430821CD
:205EEC000125ADF1140DADF804100068ADF80650014601A88847254CBDF80800608003982D
:205F0C00A06002F071FA04F10C0005F029FD4FF47A76A68005F010FB022064212A4605F097
:205F2C0079FE04F0F9FF4FF0FF3104F1100000F09BFA1448144F0568B04643F6982006469A
:205F4C00B0FBF5F916E005F03FFB484606F090FA0DF10201684603F059F9002004216A4680
:205F6C0001F024FEA08808FB00F0801BB0FBF5F006F07EFA20780128E5D0B7FBF5F0F7E763
:205F8C00FC1A0020A4CF000040420F009013002070B52B4C2278607882424BD000200121C9
:205FAC00224603F09DFD244D2878022802D1207805F078FE63782278204E980819D39008C8
:205FCC0017D22878062810D1E56820693168401B4FF47A75414340F6B830B1FBF5F1884223
:205FEC0007DA41F27070884203DD02F02BFD2278637803F0030003281CD102F0030003283A
:20600C0018D030682569E16853409B083CBF6168A5684FF47A736D1A684341F27071B0FBF5
:20602C00F3F0814206DA15200A2103F0D7F902F0B1FC2278627070BDA4090020A4CF000033
:20604C008C2600202B482DE9F8430D469C4608AF91466968BC883E884B78027809784FF003
:20606C00000842F6232701EB0321C91B674628D0491E052917D9891F0CD0263933D1072E50
:20608C002ED8C6F10701A14298BF8CB23618083631461FE0B24223DB921BA242D8BF94B255
:2060AC003C8040680BE0E86805F000FF80B2B04216DB801BA042D8BF84B23C80E86831188D
:2060CC0009E0082E0CD8C6F10801A14298BF8CB231180F313C804846224600F009FB06E064
:2060EC004FF0070803E040464FF00A0838804046BDE8F8830C1900202DE9F0412A4C04F137
:20610C00100004F11C0100F0B9FC0021206000B10121081C41D00025E5606FF07F40A0607B
:20612C0003F0CEF904F16808242208234046294606F07EF9012604F14C0784F88060384618
:20614C003146424606F070F91D2120686760324604F07CF9124904F1300005F0C5FA606B68
:20616C00A168026A406890470346606BE168026A40682364904702460A49606BA164836AF8
:20618C004068626491B29847626B506A0146506888472168284601B13046C0B2BDE8F08167
:2061AC00E8CC000080C800004420002041F21C3010B5C5F200000468B4F1FF3F08BF00241E
:2061CC0005F056FE40F2844346F25C01002242F2082E012040F2801CC4F26023C4F20C0165
:2061EC001A60C4F2043E0860C4F2283CCEF80000DCF8000038B140F20010C4F2203000686C
:20620C002046FBF73AFA44F20402C4F203021068052142F24803C2F20001C4F2030320F051
:20622C0003000143116019684FF0000EC0F2391E6FF35B414EEA01000421C4F2090118602F
:20624C000868C0F30130012809D10A684FF6FF70CFF6FC40104040F400320A60086010BD5F
:20626C002DE9F04F09AFADF11C0D924606903C880493D7F80880059197F80490039430B1ED
:20628C00081C04D0181C18BFB8F1000F01D1022038E01E4801780026354630E0069C04EB0A
:2062AC008504B4F800B04FF6FF70584523D0A7780FB303990498059A05F036FB0290D0B1B8
:2062CC0078080AD3CDF80090CDF80480029B01215846524600F0FEFF0643A07880080AD30F
:2062EC00CDF80090CDF804802088029B5246022100F0F0FF0643054801786D1CEDB2A942F3
:20630C00CCDC304607B0BDE8F08FC0464C0D002029482DE9F84FD0F80090EFF3118589F3DF
:20632C001188264CA068012106F05AF84FF0010A4FF00008064621686769A4F81CA02068BE
:20634C00A4F81E80791A321A8A42A6EB07062DD385F311884546EF195046394606F028F8DF
:20636C00761B0546B542F6D9EFF3118B89F31188E08B012804D14046394606F019F805461C
:20638C00B5F1FF3F06D0A169AD1BA94238BF0D1CE91901E0A5697919284606F005F8A4F8DA
:2063AC0020A0A4F81C805D46276001E0A4F81C8085F31188BDE8F88FA0CF00007801002051
:2063CC002DE9FC470D460AAF287A3C8898469246800928BF082043D20846694604F054FF3F
:2063EC00012808BF01203BD0BDF80000DFF874904AF601510026FF27401A10D0401E22D17C
:20640C00FCB9B8F1040F1ADAE8685146424600F06FF9E9684846884216D1012716E084B959
:20642C00B8F1100F0BDCE8685146424600F060F9E96848460830884206D1374606E00D269B
:20644C0002E00B2600E00A26FF2F08D04846001D006820B1006810B10146384688473046F0
:20646C00BDE8FC87C42100202DE9F84F0E46044605F0F6FF834625480068EFF3118A80F370
:20648C001188D4F808904E4533D01E481E4D0768002E06D4AF69012000FA06F807EBC60725
:2064AC0002E04FF000087F19207D012817D1204605F076FF206C05F0D7FF18B1E168686858
:2064CC00884368602869844212BF381C6F613868214605F061FF686848EA00006860A660A5
:2064EC00C4F80C802764002E44BF00206861012028818AF31188584605F09EFF4846BDE860
:20650C00F88FC046E805000000010020A0CF0000F8B5264C2068EFF3118680F311882449CC
:20652C001D4D0B680420B0FA80F043F00403281A1F3002780B60521C027086F3118820680A
:20654C00EFF3118380F311880A680820B0FA80F042F008022D1AE87F0A60401CE87783F374
:20656C0011880E20FEF768FE0C480068C0F38150032814BF0020012009490A4A08801768C1
:20658C003FB9094C402020600123D36100204860F8BD0120F8BDC046F71B0020B43F00509C
:2065AC005826002004800C402C500C40A0CF000050210020F0B520480127F84201D003F066
:2065CC0063F8204D204F214EBD4206D203CD0478A4003459401CA047F6E71D48002800D038
:2065EC008047164D164FBD4202D210CDA047FAE7F0BD03251BE0416808300A1C2A400BD16B
:20660C001A1C2A40AB4305D0046804300C600431043BF9D1131C05D0047801300C70013162
:20662C00013BF9D1021C2A4001D0A84304300368002BE0D17047C046FFFFFFFF00000000D0
:20664C000000000068DA0000F0DA0000E8D9000059C50110F0B50446234DA7682868ADF196
:20666C002C0D67BB0C2000F075FC071C1ED0684600212422082305F08BFE002306976A46E7
:20668C006168ADF810301948059305F07DFE386078B908210C22ADF82410A869ADF82620E2
:2066AC00014609A88847384604F06AFD6FF0030018E0E06878602069B860A7600AE080475B
:2066CC000646386805F080FE2069B86068680146304688473868616805F07EFE386805F0E3
:2066EC0077FE00200BB0F0BDE41A00203BC20000002A4AD05FEA000C8B071CD1830722D1E1
:20670C00102A08D370B4103A78C978C0103AFBD270BC103238D0042A2CD3082A05D30C2A77
:20672C0024BF08C908C008C908C008C908C092072AD0920F22E00B780370491C401C521E42
:20674C0022D08B07F7D1C30714D18307D8D0121F12D308C903801B0C4380001D121FF8D294
:20676C000AE008C903701B0A43701B0A83701B0AC370001D121FF4D2121D05D00B78037089
:20678C00491C401C521EF9D16046704710B50020442100F057FE002808BF002440D0214C76
:2067AC001F200222214605F0DEFA002835D021880806000C40EA2120782815D11020208085
:2067CC0021460220024604F049FD30B302202146024605F0C8FA00B321880806000C40EA97
